:020000040800F2
:10000000E0A0002045010008FD030008FF030008F0
:1000100001040008030400080504000800000000B3
:1000200000000000000000000000000007040008BD
:1000300009040008000000000B0400080D0400087B
:100040005F0100085F0100085F0100085F01000810
:100050005F0100085F0100085F0100085F01000800
:100060005F0100085F0100085F0100085F010008F0
:100070005F0100085F0100085F0100085F010008E0
:100080005F0100085F0100085F0100085F010008D0
:100090005F0100085F0100085F0100085F010008C0
:1000A0005F0100085F0100085F0100085F010008B0
:1000B0005F0100085F0100085F0100085F010008A0
:1000C0005F0100085F0100085F0100085F01000890
:1000D0005F0100085F0100085F0100085F01000880
:1000E0005F0100085F0100085F0100085F01000870
:1000F0005F0100085F0100085F0100085F01000860
:100100005F0100085F0100085F0100085F0100084F
:100110005F0100085F0100085F0100085F0100083F
:100120005F0100085F0100085F0100085F0100082F
:10013000DFF80CD005F034F800480047E101000872
:10014000E0A000200648804706480047FEE7FEE79B
:10015000FEE7FEE7FEE7FEE7FEE7FEE7FEE7FEE777
:10016000353D00083101000824A005F02BF8FBE71D
:1001700030B58FB001210804CDE9001000240294AD
:1001800002250491CDE907504FF4E010099068462C
:1001900002F04BFB08B190210DE00F20CDE90A05DC
:1001A0004FF48060CDE90C4002210AA80E9402F0C1
:1001B000F0FC18B19D2116A0FFF7D6FF02F0B1FDAB
:1001C0004FF47A71B0FBF1F003F017FD042003F057
:1001D0008CFD00221146501E03F0CDFC0FB030BD47
:1001E00002F01EFAFFF7C4FF00F01AF800F09CF8C6
:1001F00000F040F803F0F4FDFEE700005F45727286
:100200006F725F48616E646C65720D0A00000000D9
:100210002E2E2F5372632F6D61696E2E63000000C6
:10022000124810B5816986B041F00401816180698E
:100230000F4C00F00400049000221621204602F02A
:1002400057FF16200090012001900220039069467C
:10025000204602F0F9FD00210820CDE900010291BD
:100260006946204602F0F0FD06B010BD00100240C5
:1002700000080140254810B5234901604FF4827100
:10028000416000218160C1604FF400720161C0E9EA
:1002900005122822C0E90721416281620A21C16258
:1002A00001F0FEF9002805D0BDE81040272118A074
:1002B000FFF75ABF10BD00B50068134985B08842EA
:1002C00012D11748816941F4805181618069694682
:1002D00000F480500490A0200090022001900320A0
:1002E0000390104802F0B0FD05B000BD006806495B
:1002F000884208D10A48816921F480518161A02196
:10030000084802F080BE70470030014030000020F5
:100310002E2E2F5372632F7370692E63000000001E
:1003200000100240000801402D4810B52B49016023
:100330004FF4E1314160002181600C22C160C0E9CD
:1003400004128161C16101F0A4FA002805D0BDE862
:100350001040242123A0FFF707BF10BD10B500688F
:100360001E4986B088421DD12248816941F48041EE
:1003700081618069204C00F4804004904FF400704B
:10038000009002200190032003906946204602F06D
:100390005BFD00212015CDE9000102916946204650
:1003A00002F052FD06B010BD00680C49884209D128
:1003B0001048816921F4804181614FF4C0610E4889
:1003C00002F021BE704713B54FF6FF730122694654
:1003D000034801F088FB00981CBD00000038014074
:1003E000880000202E2E2F5372632F757361727454
:1003F0002E63000000100240000801407047FEE735
:10040000FEE7FEE7FEE770477047704710B502F061
:1004100025F9BDE8104003F075BC00001D4808B583
:10042000816941F001018161806900F00100009063
:10043000032003F093FB002211466FF00B0003F042
:100440009AFB002211466FF00A0003F094FB002291
:1004500011466FF0090003F08EFB00221146501F79
:1004600003F089FB00221146101F03F084FB0022D9
:100470001146901E03F07FFB00221146501E03F030
:100480007AFB0548416821F0E06141F0007141606C
:1004900008BD00000010024000000140704770B528
:1004A000040005D00025A56294F8510010B106E0C3
:1004B000012070BD84F850502046FFF7FCFE02205A
:1004C00084F851002068016821F040010160D4E9FE
:1004D00001010843D4E90312114308436169084349
:1004E000218B01F400710843E1690843216A084344
:1004F000A16A084321680860A069042101EA10404C
:10050000616A0843216848602068C16921F400617C
:10051000C1616565012084F85100002070BD7047FD
:1005200010B5040011D0022084F851002068016841
:1005300021F0400101602046FFF7D8FE00206065F1
:1005400084F8510084F8500010BD012010BD2DE941
:10055000F0411D4617460E460446DDF8188035E08A
:10056000681C33D02DB102F07FF8A0EB0800A84240
:100570002CD32068416821F0E00141606068B0F54B
:10058000827F0BD1A068B0F5004F02D0B0F5806F2C
:1005900004D12068016821F040010160A06AB0F533
:1005A000005F0AD1206801684DF6FF7211400160BA
:1005B0002068016841F400510160012084F8510075
:1005C000002084F850000320BDE8F0812068806896
:1005D00036EA000004D00020B842C1D10020F3E781
:1005E0000120F9E72DE9F84F044690F85000002665
:1005F000994617460D4601280DD04FF0010B84F89F
:1006000050B002F031F8804694F85100B24601280B
:1006100004D0022694E00220BDE8F88F002D7BD0A4
:10062000002F79D0032084F85100C4F854A025632A
:10063000A786E786C4F838A0A4F83CA0A4F83EA09A
:10064000C4F844A0C4F840A0A068B0F5004F04D19D
:100650002068016841F48041016020680168490612
:1006600003D4016841F040010160E068B0F5006F1B
:10067000606804D030B3E08E012823D03EE010B192
:10068000E08E01281AD135F8021B206805E02068A9
:100690008168890706D535F8021BC160E08E401ECF
:1006A000E0860BE0B9F1000F34D0B9F1FF3F05D07F
:1006B00001F0DAFFA0EB080149452BD2E08E0028BB
:1006C000E5D11EE0216815F8010B087306E02068EB
:1006D0008168890706D515F8011B0173E08E401E5D
:1006E000E0860BE0B9F1000F14D0B9F1FF3F05D05F
:1006F00001F0BAFFA0EB080149450BD2E08E0028BB
:10070000E5D14B46012202212046CDF80080FFF7BB
:100710001EFF10B1032613E011E042464946204671
:1007200000F0A2FF18B101262020606508E0A06853
:1007300018B92068C16880680090606D00B101261A
:1007400084F851B084F850A0304665E72DE9F84FA1
:10075000044690F8500000260A9F9A4693460D469C
:100760004FF0010801280ED0012084F8500001F05C
:100770007BFF814694F85100616801280BD0B1F5E8
:10078000827F06D101E0022046E7A16809B904286A
:1007900001D00226BEE055B1BBF1000F07D0BAF17F
:1007A000000F04D094F85100012802D004E0012683
:1007B000B0E0052084F8510000206065C4F838B02E
:1007C000A4F83EA0A4F83CA02563A4F836A0A4F8A1
:1007D00034A02064606420680168490603D401687D
:1007E00041F040010160E068B0F5006F606804D03E
:1007F000F0B3E08E01283CD06BE010B1E08E012810
:100800002FD1216835F8020BC860E08E401EE086CB
:1008100027E000BFB8F1000F0DD0E08E58B120687E
:100820008168890707D535F8021BC160E08E401E3C
:10083000E0864FF00008E08F58B120688168C90752
:1008400007D0C0682BF8020BE08F401EE0874FF006
:100850000108781C05D001F007FFA0EB0900B842A1
:1008600046D2E08E0028D5D1E08F0028D2D136E0E4
:10087000FFE7216815F8010B0873E08E401EE08643
:1008800027E000BFB8F1000F0DD0E08E58B120680E
:100890008168890707D515F8011B0173E08E401E9A
:1008A000E0864FF00008E08F58B120688168C907E2
:1008B00007D0C0680BF8010BE08F401EE0874FF0B7
:1008C0000108781C05D001F0CFFEA0EB0900B8426A
:1008D0000ED2E08E0028D5D1E08F0028D2D13B4641
:1008E000012202212046CDF80090FFF730FE08B12A
:1008F00003260FE04A463946204600F0B5FE18B1FF
:1009000001262020606505E0A06818B92068C1684C
:1009100080680090012084F85100002084F8500085
:10092000304679E62DE9F84F04464068002698469F
:1009300017460D464FF00409B0F5827F01D1A0683B
:1009400090B194F85000012818D04FF0010B84F8B2
:1009500050B001F089FE009094F851004FF0000A69
:1009600001280DD002267EE084F8519013460A46F5
:100970002046CDF80080FFF7E9FE4DE602204BE669
:10098000002D6FD0002F6DD084F85190C4F854A082
:10099000A563A787E787C4F830A0A4F834A0A4F81B
:1009A00036A0C4F840A0C4F844A0A0684FF40047A3
:1009B000B84204D12068016821F4804101602068B8
:1009C0000168490603D4016841F040010160E06814
:1009D000B8B133E020688168C90706D0007B05F80C
:1009E000010BE08F401EE0870BE0B8F1000F23D031
:1009F000B8F1FF3F05D001F037FE0099411A41459B
:100A00001AD2E08F0028E5D11BE020688168C90771
:100A100006D0C06825F8020BE08F401EE0870DE08D
:100A2000B8F1000F08D0B8F1FF3F07D001F01CFE6D
:100A30000099411A414501D3032614E0E08F0028B4
:100A4000E3D16068B0F5827F0AD1A068B84202D0D5
:100A5000B0F5806F04D12068016821F04001016089
:100A6000606D00B1012684F851B084F850A0304682
:100A7000D2E57047704738B50446FE4845F6C05188
:100A80000068B0FBF1F064214843009001F0ECFDF8
:100A90000246206800994B1E009304D2616D41F01C
:100AA0002001616502E081688907F3D5416821F082
:100AB000A00141606421204600F0D6FD18B1606DB0
:100AC00040F020006065A06818B92068C16880689F
:100AD0000090012084F85100606D0028204602D06B
:100AE000FFF7C8FF38BDFFF7C4FF38BD016B4A1CD4
:100AF0000263026809781173C18E491EC186C18ED6
:100B0000002900D1B7E77047016B02680988D160FE
:100B1000016B891C0163C18E491EC186C18E0029EB
:100B200000D1A8E7704730B590F850300024012B71
:100B30000BD0012380F85030002341B13AB190F836
:100B40005150012D05D002242DE0022030BD01249A
:100B500029E0032580F85150436501638286C286EF
:100B600083638387C3870364C16809B1C24900E016
:100B7000C24941648168B1F5004F04D101680A6837
:100B800042F480420A608168002901684A680ED0F8
:100B900042F0A0024A6001680A68520603D40A685B
:100BA00042F040020A6080F85030204630BD42F0EA
:100BB0008002EFE7704708B501684A6822F06002DA
:100BC0004A604168B1F5827F0BD18168B1F5004F71
:100BD00002D0B1F5806F04D101680A6822F04002AA
:100BE0000A60816819B90168CA68896800910121A1
:100BF00080F85110416D11B1FFF73CFF08BDFFF7C0
:100C0000D9FF08BD01680B7B816B4A1C82630B70A6
:100C1000C18F491EC187C18F002900D1CBE7704722
:100C20000168C968826B1180816B891C8163C18FE7
:100C3000491EC187C18F002900D1BCE770477047AA
:100C400038B504468B4845F6C0510068B0FBF1F05A
:100C500064214843009001F007FD02462068416886
:100C600021F0200141600098411E009104D2606D86
:100C700040F02000606503E0206880688007F2D5BE
:100C80006421204600F0F0FC18B1606D40F02000B7
:100C90006065A06818B92068C16880680090616DBF
:100CA000012029B184F851002046FFF7E3FE38BD4A
:100CB00094F8511084F851000429204602D0FFF71F
:100CC000BEFF38BDFFF776FF38BD016B4A1C0263DB
:100CD000026809781173C18E491EC186C18E002930
:100CE00008D101684A6822F080024A60C18F002959
:100CF00000D1A5E7704701680B7B816B4A1C8263BA
:100D00000B70C18F491EC187C18F002908D10168AE
:100D10004A6822F060024A60C18E002900D18FE744
:100D20007047016B02680988D160016B891C0163FF
:100D3000C18E491EC186C18E002908D101684A684A
:100D400022F080024A60C18F002900D178E7704705
:100D50000168C968826B1180816B891C8163C18FB6
:100D6000491EC187C18F002908D101684A6822F055
:100D700040024A60C18E002900D161E77047F0B59A
:100D800090F850500024012D0CD0012580F85050CF
:100D900090F8515000264768012D0BD0B7F5827F9F
:100DA00006D101E00220F0BD87680FB9042D01D003
:100DB00002242AE031B12AB123B190F85150012D1B
:100DC00002D004E0012420E0052580F8515046655A
:100DD00001638386C38682638387C387C16819B131
:100DE00027490164274902E02749016427494164F2
:100DF00001684A6842F0E0024A6001680A685206E7
:100E000003D40A6842F040020A6080F8506020462D
:100E1000F0BDF0B400248568134604261DB942686D
:100E2000B2F5827F0DD090F85020012A0ED0012219
:100E300080F8502090F851700022012F09D0022430
:100E400041E080F85160F0BC0A4698E70220F0BC0F
:100E5000704771B16BB180F85160426581638387DF
:100E6000C38702638286C2864264C168A1B1084911
:100E700013E00FE00C000020090B0008ED0A000849
:100E8000510D0008230D0008F70C0008CB0C0008DA
:100E9000210C0008012416E0FE490164B5F5004F5D
:100EA00004D101680B6823F480430B6001684B6830
:100EB00043F060034B6001680B685B0603D40B686A
:100EC00043F040030B6080F850202046BFE710B588
:100ED000406A01684A6822F003024A60416D41F0AD
:100EE00010014165012180F85110FFF7C3FD10BDCD
:100EF00038B50546446A01F0B7FB02462868006829
:100F000080061ED42068416821F0020141606421FE
:100F1000204600F0A9FB18B1606D40F0200060652C
:100F2000A068002118B92068C26880680090E18636
:100F3000012084F85100606D18B12046FFF79AFD3A
:100F400038BD2046FFF795FD38BD704710B5406AA3
:100F5000FFF7FBFF10BD70B5044690F85000002667
:100F6000012809D0012084F8500094F85100002590
:100F7000012803D002263FE0022070BD89B182B172
:100F8000032084F8510065652163A286E286A5638B
:100F900065642564A587E587A068B0F5004F02D099
:100FA00006E0012628E02068016841F480410160E4
:100FB000A16CB948C862A16CB8488862A16CB848F5
:100FC0000863A06C4563E38E2268216B0C32A06C31
:100FD00002F077F920680168490603D4016841F0FE
:100FE000400101602068416841F0200141602068B3
:100FF000416841F00201416084F85050304670BDB4
:1010000010B50146406A0968096889061ED401685E
:101010004A6822F003024A604168B1F5827F0BD131
:101020008168B1F5004F02D0B1F5806F04D101683D
:101030000A6822F040020A600021C187012180F87D
:101040005110416D11B1FFF715FD10BDFFF7B2FD55
:1010500010BD704710B5406AFFF7FBFF10BD70B5BB
:101060000546446A01F000FB0246286800688006D5
:1010700019D46421204600F0F7FA18B1606D40F0F1
:10108000200060652068416821F003014160002074
:10109000E086E087012084F85100606D18B1204699
:1010A000FFF7E8FC70BD2046FFF7C9FD70BD704733
:1010B00010B5406AFFF7FBFF10BD2DE9F041044673
:1010C00090F85000002601280CD0012084F8500030
:1010D00094F851000025676801280CD0B7F5827F8D
:1010E00007D102E00220BDE8F081A7680FB904280B
:1010F00001D0022651E031B12AB123B194F8510058
:10110000012802D004E0012647E0052084F85100C0
:1011100065652163A386E386A263A387E3872564CD
:10112000656494F8510004283BD0E16C5D48C862C6
:101130005D48E16C8862E16C59480863E06C456386
:10114000E38F2168A26B0C31E06C02F0BAF82068E2
:10115000416841F001014160A06CC562A06C8562EC
:10116000A06C0563A06C4563E38E2268216B0C3292
:10117000A06C02F0A6F820680168490603D4016853
:1011800041F0400101602068416841F02001416068
:101190002068416841F00201416084F850503046B7
:1011A000A1E7E16C4148C8624148C2E72DE9F0413E
:1011B000044600268068042318B96568B5F5827F67
:1011C0000DD094F85050012D11D0012584F85050C5
:1011D00094F851700025012F0BD0022644E084F8CA
:1011E00051302046BDE8F04113460A4665E702202B
:1011F00079E771B16AB184F851306565A163A2875E
:10120000E28725646564A586E586B0F5004F02D0C7
:1012100006E0012628E02068016821F48041016091
:10122000E16C2248C862E16C21488862E16C1C488C
:101230000863E06C4563E38F2168A26B0C31E06CBE
:1012400002F03FF820680168490603D4016841F0C4
:10125000400101602068416841F020014160206840
:10126000416841F00101416084F8505030463AE74E
:1012700008B5002100910F4945F6C0520968B1FB3D
:10128000F2F16422514300910168009A531E0093C9
:1012900017D211E0050C00084D0F0008F10E0008F0
:1012A000CF0E0008B11000085F10000855100008AC
:1012B000011000080C000020426D42F0200242653F
:1012C00002E08A689207E0D50A6822F040020A60CC
:1012D00001684A6822F0E0024A600068C068009035
:1012E00008BD01684A6822F0E0024A6000680168AF
:1012F00021F040010160704738B50446E24845F6E8
:10130000C0510068B0FBF1F06421484300902068B0
:101310004168090601D5DD4961644168490601D586
:10132000DB492164416821F0200141602068416867
:101330004FF00005890702D44068C00727D0A06C91
:10134000A8B14563A06C01F0F4FF2068416821F06A
:10135000020141600098411E009104D2606D40F08E
:101360002000606503E0206880688007F2D5E06CAB
:1013700068B14563E06C01F0DCFF2068016821F092
:10138000400101602068416821F001014160E5876A
:10139000E58665652068C16880680090012084F852
:1013A0005100002038BD704708B5406A01680A68DE
:1013B00022F040020A60C26C002151630268536847
:1013C00023F001035360826C12B1526B002A0BD1DF
:1013D000C187C18641650168CA6889680091012199
:1013E00080F85110FFF7DFFF08BDA74908B509686D
:1013F00045F6C052B1FBF2F1642251430091406ABC
:101400000021826C51630268536823F00203536029
:10141000009A531E009304D2426D42F020024265AE
:1014200003E0026892689207F2D5C26C12B1526B67
:10143000002A07D1C187C1864165012180F851107A
:10144000FFF7B1FF08BDF8B504460068416809061A
:1014500001D58E4961644168490601D58C492164F2
:10146000416821F0200141600126A06C002538B1BF
:1014700021684968890702D58649416300E04563D0
:10148000E06C38B121684968C90702D082494163DC
:1014900000E0456320684168890715D54068C007AA
:1014A00012D0A06C30B101F05CFF10B1A06C4563AC
:1014B00000E00026E06C38B101F053FF18B1E06C99
:1014C0000126456300E0002620684068800708D5B3
:1014D000A06C30B101F045FF10B1A06C456300E095
:1014E000002620684068C00706D0E06C20B101F0FB
:1014F00038FF78B1E06C456366B1E587E5866565E0
:101500002068C16880680090012084F8510020465E
:10151000FFF749FF0020F8BD90F8501001290CD0CA
:10152000012180F8501001684A6822F003024A60E5
:10153000002180F85010084670470220704790F84C
:10154000501001290CD0012180F8501001684A6820
:1015500042F003024A60002180F8501008467047AC
:101560000220704710B50446806C08B101F0E1FE1E
:10157000E06C08B101F0DDFE2068416821F0030154
:101580004160012084F85100002010BD10B5406A70
:101590000021C187C186FFF76DFA10BD38B504463A
:1015A0000068426881684B0605D4CB0703D0530618
:1015B00001D5216C04E08B0707D5130605D5616CB6
:1015C00001B02046BDE83040084711F0600F3FD021
:1015D00093063DD54B060AD594F85130032B34D0F1
:1015E000636D43F004036365C368836800938906F1
:1015F00009D5616D41F00101616581680091016863
:1016000021F040010160606D002821D02068416810
:1016100021F0E0014160012084F85100900718D0CA
:101620002068416821F0030141601C4DE06C18B155
:101630004563E06C01F095FEA06C002808D045637E
:10164000A06CBDE8384001F08CBEC1688068009095
:1016500038BD2046FFF70EFA38BD90F851007047AC
:10166000406D70470120704738B50B460092044624
:1016700000228021FEF76BFF002804D0606D40F04F
:1016800020006065032038BD0C000020E312000834
:1016900071120008EB130008A91300088D1500084B
:1016A00070B5040005D00025A56294F8510010B172
:1016B00004E0012070BD2046FEF7FDFD022084F805
:1016C00051002068016821F040010160D4E9010166
:1016D0000843D4E903121143084361690843218B8D
:1016E00001F400710843E1690843216A0843A16AD3
:1016F000084321680860A069042101EA1040616A7A
:101700000843216848602168E06A08612068C1696F
:1017100021F40061C1616565012084F85100002059
:1017200070BD00002DE9F041044600680169E268DF
:1017300021F44051114301612169A06808436169A6
:1017400008432168CA6841F20C639A430243CA60A5
:1017500020684169A26921F4407111434161FC494B
:1017600020686425322688423CD101F0E7FA00EB7C
:10177000C00101EB001061688900B0FBF1F701F0D6
:10178000DDFA00EBC00101EB00106168B046890092
:10179000B0FBF1F0B0FBF5F06FF01801484307EB38
:1017A000800106EB0110B0FBF5F000F0F00601F04F
:1017B000C5FA00EBC00101EB001061688900B0FBC5
:1017C000F1F0B0FBF5F006EB001601F0B7FA00EB14
:1017D000C00101EB001061688900B0FBF1F701F076
:1017E000ADFA3BE001F0A0FA00EBC00101EB001004
:1017F00061688900B0FBF1F701F096FA00EBC001D7
:1018000001EB00106168B0468900B0FBF1F0B0FB5D
:10181000F5F06FF01801484307EB800106EB01106B
:10182000B0FBF5F000F0F00601F07EFA00EBC0012D
:1018300001EB001061688900B0FBF1F0B0FBF5F03E
:1018400006EB001601F070FA00EBC00101EB00108E
:1018500061688900B0FBF1F701F066FA00EBC001A6
:1018600001EB001061688900B0FBF1F0B0FBF5F00E
:101870006FF01801484307EB800108EB0110B0FB43
:10188000F5F0216800F00F0030448860BDE8F08179
:10189000704770B5040004D094F83900002510B1E9
:1018A00006E0012070BD84F838502046FEF756FD52
:1018B000242084F839002068C16821F40051C160F7
:1018C0002046FFF72FFF2068016921F49041016154
:1018D0002068416921F02A0141612068C16841F412
:1018E0000051C160E563202084F8390084F83A0093
:1018F000002070BD70B5040004D094F839000025B4
:1019000010B106E0012070BD84F838502046FEF783
:1019100025FD242084F839002068C16821F4005195
:10192000C1602046FFF7FEFE2068016921F4904166
:1019300001612068416921F022014161206841690B
:1019400041F0080141612068C16841F40051C16063
:10195000E563202084F8390084F83A00002070BD47
:1019600070B50E46040004D094F83900002510B17B
:1019700006E0012070BD84F838502046FEF7EEFCEA
:10198000242084F839002068C16821F40051C16026
:101990002046FFF7C7FE2068016921F4006101615C
:1019A0002068416921F02A0141612068016941F400
:1019B000804101612068016921F02001314301610A
:1019C0002068C16841F40051C160E563202084F8BB
:1019D000390084F83A00002070BD2DE9F041164628
:1019E0000F46040004D094F83900002510B106E039
:1019F00001204BE784F838502046FEF7AFFC242046
:101A000084F839002068C16821F40051C160204683
:101A1000FFF788FE2068016921F490410161206888
:101A2000416921F02A0141612068016921F00F011B
:101A3000394301612068C16821F400613143C1600C
:101A40002068C16841F40051C160E563202084F83A
:101A5000390084F83A00002018E7704710B50400F8
:101A60000ED0242084F839002046FEF79DFC00208B
:101A7000E06384F8390084F83A0084F8380010BD37
:101A8000012010BD2DE9F041984617460E46044648
:101A9000069D1CE0681C1AD02DB100F0E5FDA0EBFE
:101AA0000800A84213D92068C16821F4D071C16030
:101AB0002068416921F001014161202084F839004A
:101AC00084F83A00002084F838000320DEE620681D
:101AD000006836EA000004D00020B842DAD00020C6
:101AE000D4E60120F9E72DE9F843044690F83900DF
:101AF0001F4616460D46202852D1A5B19EB194F836
:101B0000380001284CD0012084F838004FF000083C
:101B1000C4F83C80212084F8390000F0A5FDA6849B
:101B20008146E68428E00120BDE8F883E08C401E71
:101B3000E084A0684B46B0F5805F4FF000024FF0A4
:101B400080012046009705D0FFF79CFFF8B90FE011
:101B500000380140FFF796FFC8B928882168C0F314
:101B600008004860206908B16D1C05E0AD1C03E069
:101B7000216815F8010B4860E08C0028D6D14B464F
:101B80000022402120460097FFF77CFF08B1032088
:101B9000CAE7202084F8390084F838800020C3E7A1
:101BA0000220C1E72DE9F843044690F83A0099462F
:101BB00016460D4620284ED195B18EB194F83800C6
:101BC000012848D0012084F838000027E76322204C
:101BD00084F83A0000F048FDA6858046E68530E0AE
:101BE0000120A1E7E08D401EE085A0684346B0F5E6
:101BF000805F4FF000024FF020012046CDF80090AA
:101C000004D0FFF73FFF98B103208DE7FFF73AFFBD
:101C10000028F9D1206900282068406803D0C1B2AB
:101C200025F8011B0DE0C0F3080125F8021B08E0B0
:101C3000206900282068406801D000F07F0005F886
:101C4000010BE08D0028CDD1202084F83A0084F8E3
:101C50003870002068E7022066E790F83930202BC2
:101C600018D1A9B1A2B190F83830012B12D001627D
:101C70008284C2840021C163212280F8392080F847
:101C800038100068C16841F08001C16000207047D1
:101C9000012070470220704790F83A30202B22D163
:101CA000F9B1F2B190F83830012B1CD081628285F5
:101CB000C2850021C163222280F83A2080F83810C2
:101CC0000168CA6842F48072CA6001684A6942F0D9
:101CD00001024A610068C16841F02001C160002032
:101CE00070470120704702207047704770B5446A02
:101CF0002068406994F83910C0F3C01000252129EC
:101D000004D118B1E584204600F02EFC206840691B
:101D100094F83A10C0F38010222904D118B1E58557
:101D2000204600F013FCE06B40F01000E06320461A
:101D3000FFF7DBFF70BD704710B5406AFFF7FBFF90
:101D400010BD704710B50146406A096809688906E8
:101D50000CD40021C18401684A6922F080024A61E2
:101D60000068C16841F04001C16010BDFFF7E9FFA4
:101D700010BD70B5044690F83900202830D169B301
:101D800062B394F8380001282AD0012084F8380082
:101D90002162A284E2840025E563212084F83900D1
:101DA000236BFD489862236BFC48D862236BFC4888
:101DB0001863206B134645632668206B321D01F0C3
:101DC00080FA21686FF04000086084F8385020687D
:101DD000416941F080014161002070BD012070BD6A
:101DE000022070BD704710B5406AFFF7FBFF10BDC1
:101DF000704710B50146406A09680968890613D41E
:101E00000021C1850168CA6822F48072CA60016835
:101E10004A6922F001024A6101684A6922F04002DF
:101E20004A61202180F83A10FFF7E2FF10BDF8B5B3
:101E3000044690F83A0020283CD1C1B3BAB394F8D4
:101E40003800012836D0012084F83800A162A2852C
:101E50000025E563222084F83A00636BD14898623C
:101E6000636BD148D862636BCD481863606B1346CF
:101E700045630846666B216802463046091D01F03D
:101E800020FA206801684168009184F83850C168E0
:101E900041F48071C1602068416941F001014161F4
:101EA0002068416941F0400141610020F8BDFFE731
:101EB0000120FBE70220F9E790F8381001290BD048
:101EC000012180F8381001684A6990F83930C2F36E
:101ED000C012212B02D006E0022070471AB14A69D5
:101EE00022F080024A6101684A6990F83A30C2F3F0
:101EF0008012222B0ED16AB1CA6822F48072CA60A5
:101F000001684A6922F001024A6101684A6922F0C7
:101F100040024A61002180F838100846704708B531
:101F200090F83810012907D0012180F8381090F876
:101F30003910212902D006E0022008BD01684A6953
:101F400042F080024A6190F83A100022222911D111
:101F500001680B684B680093CB6843F48073CB60D7
:101F600001684B6943F001034B6101684B6943F021
:101F700040034B6180F83820002008BD10B50446AE
:101F80000068416994F83920C1F3C011212A0BD1AE
:101F900051B1416921F080014161206B08B101F02C
:101FA000C8F9204600F0E0FA2068416994F83A2028
:101FB000C1F38011222A0BD151B1416921F04001B6
:101FC0004161606B08B101F0B4F9204600F0BEFA3F
:101FD000002010BD70B504460068C16821F4F0719E
:101FE000C1602068416921F00101416120684169B7
:101FF0004FF00005090609D5416921F080014161D2
:10200000206B18B14563206B01F093F9206841699A
:10201000490609D5416921F040014161606B18B161
:102020004563606B01F085F9E584E585E563202073
:1020300084F83A0084F83900002070BD70B5044679
:102040000068C16821F0C001C160206841694FF09B
:102050000005090609D5416921F080014161206B25
:1020600018B14563206B01F064F9E584202084F801
:102070003900002070BD70B504460068C16821F4C5
:102080009071C1602068416921F0010141612068BF
:1020900041694FF00005490609D5416921F0400129
:1020A0004161606B18B14563606B01F042F9E585F1
:1020B000202084F83A00002070BD704710B5406AB7
:1020C0000021426B5163026B12B1526B002A09D19D
:1020D000C184C185C163202180F8391080F83A108D
:1020E000FFF7EBFF10BD10B5406A0021026B516392
:1020F000426B12B1526B002A09D1C184C185C16300
:10210000202180F8391080F83A10FFF7D6FF10BD73
:1021100070B5044600680126C16821F4F071C16001
:102120002068416921F001014161206B002538B12F
:1021300021684969090602D51C49416300E04563ED
:10214000606B38B121684969490602D51849416375
:1021500000E045632068416909060CD5416921F01A
:1021600080014161206B30B101F0FBF810B1206BB0
:10217000456300E000262068416949061AD5416997
:1021800021F040014161606BA0B101F0EAF8E8B1D3
:10219000606B45630FE00000451D0008391D000815
:1021A000ED1C0008F31D0008E71D0008E7200008EB
:1021B000BD20000856B1E584E585E563202084F85C
:1021C000390084F83A002046FFF777FF002070BD01
:1021D000704710B5406A0021C184202180F8391071
:1021E000FFF7F6FF10BD10B504460068C16821F086
:1021F000C001C160206841694FF020020B064FF01A
:1022000000010FD5436923F080034361206B48B17F
:10221000F2494163206B01F0A4F848B1206B416B97
:10222000884705E0E18484F839202046FFF7D0FF95
:10223000002010BD704710B5406A0021C1852021E3
:1022400080F83A10FFF7F6FF10BD10B5044600689D
:10225000C16821F49071C1602068416921F00101D9
:102260004161206841694FF020024B064FF00001A8
:102270000FD5436923F040034361606B48B1D849EF
:102280004163606B01F06DF848B1606B416B88474A
:1022900005E0E18584F83A202046FFF7CBFF0020D7
:1022A00010BD10B5406A0021C185C184FFF71DFD36
:1022B00010BD10B590F83A10222901D0022010BDAF
:1022C0008168B1F5805F11D00169002901681FD0D4
:1022D000496801F07F03816A4A1C82620B70C18DDC
:1022E000491E0904090CC18518D02BE00269816AD6
:1022F000002A0268526805D0D2B20A80816A491C5D
:102300008162ECE7C2F308020A80816A891CF7E760
:102310004A68816A4B1C83620A70E0E70168CA68F8
:1023200022F02002CA600168CA6822F48072CA6082
:1023300001684A6922F001024A61202180F83A10BE
:10234000FFF756FD002010BD70B502680446106806
:10235000D168536910F00F0F50D003F0010501F45C
:10236000907635435CD0C20705D0CA0503D5E26B31
:1023700042F00102E263420705D5DA0703D0E26BBF
:1023800042F00202E263820705D5DA0703D0E26B6E
:1023900042F00402E263020705D5DA0703D0E26BDC
:1023A00042F00802E263E26B002A32D0800604D5D4
:1023B000880602D52046FFF77CFF20684069E16B64
:1023C000C0F38010090700D420B3204600F0BEF807
:1023D00020684169490619D5416921F040014161F0
:1023E000606B98B17F494163606B00F0BAFF0028D1
:1023F0000FD0606B416BBDE87040084783060FD576
:102400008B060DD52046BDE8704052E72046FFF709
:102410006CFC70BD2046FFF768FC0020E06370BDD7
:10242000030606D50B0604D52046BDE8704000F033
:10243000A4B84006F3D54806F1D5D168204621F06E
:102440004001D160202184F83910FFF77AFC70BD7B
:1024500090F83810012910D0012100F8381F2421EC
:10246000417050F8381CCA6842F00102CA6020214D
:10247000417000210170084670470220704790F8B3
:102480003810012910D0012100F8381F2421417093
:1024900050F8381CCA6842F00202CA60202141701C
:1024A00000210170084670470220704790F83810EC
:1024B000012910D0012100F8381F2421417050F863
:1024C000381CCA6822F00202CA6020214170002133
:1024D0000170084670470220704790F838100129B3
:1024E00012D0012100F8381F2421417050F8381C07
:1024F000CA6822F00C0242F00802CA602021417032
:1025000000210170084670470220704790F838108B
:10251000012912D0012100F8381F2421417050F800
:10252000381CCA6822F00C0242F00402CA60202162
:10253000417000210170084670470220704710F872
:10254000391F407808437047C06B70470168CA68FC
:1025500022F49072CA6001684A6922F001024A615D
:10256000202180F83A1070470168CA6822F0C00242
:10257000CA60202180F83910704790F8391021295D
:1025800001D0022070478168B1F5805F016A0BD0ED
:102590004A1C0262026809785160C18C491E090414
:1025A000090CC1840ED017E009880268C1F3080144
:1025B000516001690029016A02D0491C0162ECE7FF
:1025C000891CFBE70168CA6822F08002CA600068C3
:1025D000C16841F04001C16000207047D32100086C
:1025E00037220008A3220008704770B5554D0446F5
:1025F0004FF47A712878B1FBF0F053490968B1FBC8
:10260000F0F001F0FAFA48B9102C07D20022214666
:10261000501E01F0B0FA00206C6070BD012070BD4A
:102620004A4810B5016841F010010160032001F033
:1026300095FA0020FFF7D9FFFDF7F0FE002010BD4E
:102640007047434810B54FF0FF31C160002202616E
:10265000C160C260FFF7F4FF002010BD39488168F7
:102660000278114481607047364880687047354869
:1026700040687047334A10B50146137800208B42FA
:1026800003D011705068FFF7B0FF10BD2D480078DF
:10269000704770B50446FFF7E7FF0546601C02D09F
:1026A000284800780444FFF7DFFF401BA042FAD31C
:1026B00070BD4FF0E020016921F002010161704717
:1026C0004FF0E020016941F00201016170472148AB
:1026D000704721480068000C70471F480068C0F32D
:1026E0000B0070471C48416841F001014160704790
:1026F0001948416821F0010141607047164841685E
:1027000041F00201416070471348416821F0020125
:10271000416070471048416841F0040141607047D2
:102720000D48416821F00401416070470B49096878
:1027300001600A49091D09684160084908310968B2
:1027400081607047000000200C0000200020024043
:102750000010024000020101002004E0E8F7FF1F22
:102760002DE9F041FFF780FFFD4C0546206840F061
:102770000100206005E000BFFFF776FF401B022844
:1027800043D820688007F7D5206820F0F80040F093
:1027900080002060FFF768FF00250646656041F273
:1027A000883704E0FFF760FF801BB8422DD86068CF
:1027B00010F00C0FF6D1EC49EA4808600020FFF752
:1027C00014FF10B10120BDE8F081FFF74DFF064670
:1027D000206820F08070206005E000BFFFF744FF14
:1027E000801B022811D820688001F7D46560FFF7AC
:1027F0003BFF0646206820F41020206007E000BF61
:10280000FFF732FF801B642801D90320DBE7206833
:102810008003F5D4206820F480202060606A40F0B6
:1028200080706062A5600020CDE72DE9F84F044676
:102830000078CB4DC00749D06868C0F381000128FB
:1028400007D06868C0F38100022809D16868C00316
:1028500006D52868800339D56068002870D035E037
:102860006068B0F5803F0BD010B1B0F5A02F11D04B
:10287000286820F480302860286820F4802002E056
:10288000286840F480302860606890B1FFF7ECFE63
:1028900006460AE0286840F480202860F0E700BF80
:1028A000FFF7E2FE801B642875D828688003F7D5FF
:1028B0000CE0FFF7D9FE064605E000BFFFF7D4FEA7
:1028C000801B6428F0D828688003F7D42078A74EAE
:1028D00080074FF001094FF000083BD5686810F001
:1028E0000C0F07D06868C0F38100022809D168681E
:1028F000C00306D42868800714D5206901281FD199
:1029000010E02069B0B1C6F80090FFF7ADFE0746B1
:1029100005E000BFFFF7A8FEC01B0228C4D8286846
:102920008007F7D52868616920F0F80040EAC10007
:1029300028600FE0C6F80080FFF796FE074606E025
:10294000E9E000BFFFF790FEC01B022823D82868EB
:102950008007F7D4207800072CD58548A169D9B124
:10296000C0F80090FFF780FE074604E0FFF77CFE0A
:10297000C01B02280FD8686A8007F7D57A484FF441
:10298000FA510068B0FBF1F0009000BF0098411EC2
:102990000091FAD20EE080E0C0F80080FFF764FEFC
:1029A000074604E0FFF760FEC01B022875D8686A7E
:1029B0008007F7D42078400760D5E8690027C00079
:1029C00008D4E86940F08050E861E869012700F028
:1029D0008050009067480168C90513D40168834698
:1029E00041F480710160FFF73FFE824606E000BFC0
:1029F000FFF73AFEA0EB0A0064284ED8DBF800008F
:102A0000C005F5D5E06801280AD008B1052813D023
:102A1000286A20F001002862286A20F0040002E001
:102A2000286A40F001002862E06841F2883B98B1D2
:102A3000FFF71AFE82460BE0286A40F00400286285
:102A4000EEE700BFFFF710FEA0EB0A0159455AD888
:102A5000286A8007F6D50CE0FFF706FE824605E0FF
:102A6000FFF702FEA0EB0A0159454CD8286A8007FF
:102A7000F6D41FB1E86920F08050E861E06988B3BE
:102A80006968C1F38101022945D00228C6F8608037
:102A900004D0FFF7E9FD044638E034E0FFF7E4FD39
:102AA000074604E0FFF7E0FDC01B02282BD828688A
:102AB0008001F7D4206AB0F5803F05D16868A1682D
:102AC00020F4003008436860D4E9080108436968CD
:102AD00021F4741108436860C6F86090FFF7C4FDE4
:102AE000044606E015E000BFFFF7BEFD001B02280C
:102AF00009D828688001F7D50BE000BFFFF7B4FDC7
:102B0000001B022802D90320BDE8F88F2868800145
:102B1000F4D40020F8E70120F6E717A185B00FC92B
:102B20008DE80F0018A00E4A0068049051680D4807
:102B300001F00C03042B10D0082B0ED1C1F38343FA
:102B4000C9031DF8030021D5516804AAC1F340410F
:102B5000515C044A5043B0FBF1F005B070470000EF
:102B60000010024000127A000C00002000004242D7
:102B70008004424200700040020304050607080971
:102B80000A0B0C0D0E0F101001020000A64948435D
:102B9000E3E72DE9F047DFF8948205460E46D8F8C2
:102BA000000000F00700B0420CD2D8F8001021F06D
:102BB00007013143C8F80010D8F8000000F0070002
:102BC000B04262D128789A4C800705D56068A96820
:102BD00020F0F000084360602878C00744D068689F
:102BE000012816D02168022816D0890700294CDA5E
:102BF000616821F0030101436160FFF735FD6968F9
:102C0000074641F2883001290ED00229814618D0AA
:102C100026E021688903E9E78901E7E7FFF724FD5A
:102C2000C11B494501D918E081466068C0F38100A5
:102C30000128F3D118E000BFFFF716FDC11B49457D
:102C40000BD86068C0F381000228F5D10CE000BF0A
:102C5000FFF70AFDC11B494502D90320BDE8F087F3
:102C6000606810F00C0FF3D1D8F80010404601F066
:102C70000701B1420BD9016821F00701314301601E
:102C8000006800F00700B04201D00120E6E7287894
:102C9000400705D56068E96820F4E060084360609B
:102CA0002878000706D56068296920F4605040EA5A
:102CB000C1006060FFF731FF61685E4AC1F3031134
:102CC000515CC8405C4908600020FFF78EFC002082
:102CD000C4E730B585B000200290022001900320A7
:102CE0000390534C4FF480700090A0690D4640F063
:102CF0000400A061A069694600F0040004904F48F8
:102D000000F0A2F8606820F0E0602843606005B041
:102D100030BD4B490120C864704749490020C86450
:102D20007047454800687047434841490068496812
:102D3000444AC1F30221515CC84070473E483C49B7
:102D4000006849683F4AC1F3C221515CC8407047DE
:102D500010B50F21016036490A6853034FF0000295
:102D600002D54FF4A02304E00B68DB0303D54FF436
:102D70008033436000E042604B6803F400338360BB
:102D80000B68DC074FF0010301D0036100E0026132
:102D90000C68C4F3C40444610C6A640702D50524BA
:102DA000C46005E00C6AE40701D0C36000E0C260C3
:102DB0004C6AE40701D0836100E082610A68D201B5
:102DC00002D50222C26100E0C3614A6802F4803287
:102DD0000262496801F47011416210BD0F22026065
:102DE000134A536803F003034360536803F0F0038E
:102DF0008360536803F4E063C36052684FF4E06398
:102E000003EAD20202610948006800F00700086086
:102E10007047704710B5064CA068000603D5FFF751
:102E2000F8FF8020A07210BD00093D000020024084
:102E300000100240785400080C00002000080140F7
:102E400000004242885400082DE9F84FDFF8ECA258
:102E500000220AF1040B144601274FF00F090BF171
:102E6000040E00BF0B6807FA04F52B40AB4274D187
:102E7000DFF8CCC24E68A6EB0C0866452BD00DDC03
:102E8000032E34D005DC36B3012E19D0022E2FD1FB
:102E90001BE0112E16D0122E2AD119E0B8F5881F8A
:102EA00019D006DCB8F5803F15D0B8F5801F1FD1CA
:102EB00011E0B8F5001F0ED0B8F5041F18D10AE0D4
:102EC000CA6815E0CA68121D12E0CA6808320FE02D
:102ED000CA680C320CE08A682AB1012A4FF0080255
:102EE00003D0456104E0042202E0056100E0002215
:102EF000FF2B01D8064601E000F104064FEA8405E5
:102F000001D9A5F12005D6F800C009FA05F82CEA88
:102F1000080C02FA05F54CEA050CC6F800C04D682D
:102F2000ED006AD5874DAE6946F00106AE61AD6928
:102F300024F0030605F001050095834D06EB050C12
:102F4000DCF80850A6074FEA167809FA08F6B543E8
:102F50007E4EB04202D100261AE04EE07C4EB042D6
:102F600001D1012614E07B4EB04201D102260FE0D0
:102F7000794EB04201D103260AE0784EB04201D129
:102F8000042605E0764EB04201D1052600E0062673
:102F900006FA08F62E43CCF808604D68DAF80060AF
:102FA000ED03554601D51E4300E09E432E604D685B
:102FB000AD0305D5DBF800601E43CBF8006004E0EC
:102FC000DBF800509D43CBF800504D68DEF8006000
:102FD000ED02754601D51E4300E09E432E604D680C
:102FE000AD0205D5554D0C352E681E432E6004E00C
:102FF000524E0C3635689D433560641C102CFFF42E
:1030000031AFBDE8F88F2DE9F04300230F24DFF83E
:1030100038C163E001229A400A405ED0FF2A01D8FD
:10302000074601E000F104074FEA830601D9A6F143
:103030002006D7F8008004FA06F54FF0040928EAC4
:10304000050809FA06F948EA0908C7F80080C568C2
:1030500025EA0205C56023F003056544AF684FEA21
:1030600083764FEA167604FA06F909EA0708374F1D
:10307000B84201D1002719E0354FB84201D10127EC
:1030800014E0344FB84201D102270FE0324FB8426A
:1030900001D103270AE0314FB84201D1042705E0EE
:1030A0002F4FB84201D1052700E00627B74047451A
:1030B00013D1AF6827EA0907AF60204D2E68964309
:1030C0002E602D1D2E6896432E602D1D2E68964372
:1030D0002E602D1D2E6896432E605B1C31FA03F284
:1030E00098D1BDE8F0838068084000D00120704787
:1030F0000AB1016170470904FBE7C2684A40C26037
:10310000704708B541F48032009282618161009974
:103110008161816900918069C00301D5002008BDEB
:10312000012008BD7047054910B514310A680242F4
:1031300002D00860FFF7F6FF10BD00000004014058
:103140000000111000100240000001400008014082
:10315000000C014000100140001401400018014023
:10316000001C014030B560B1FA4A03681421934253
:1031700009D2F94A1A44B2FBF1F189000164F74916
:103180000AE0012030BDF34A52421A44B2FBF1F189
:1031900089000164EF490839C163022180F82110D8
:1031A0001A6843F6F0718A43F0E901142143D0E92B
:1031B00002452C4321430469214344692143846926
:1031C000214311431960002141628162C1620163A0
:1031D0004163012242770177084630BD10B5D0B176
:1031E00001680A6822F001020A6002680021116089
:1031F00002685160026891600268D160D54C026833
:103200001423A24209D2D44C2244B2FBF3F292001E
:103210000264D24A0AE0012010BDCE4C644222442E
:10322000B2FBF3F292000264CA4A083AC26390F811
:10323000403001229A40C36B5A60816380F82110AC
:1032400080F82010002010BD30B590F840500124C7
:10325000AC40C56B6C60046863604368102B036806
:1032600003D099600068C26030BD9A600068C16098
:1032700030BD70B5044690F82000002501280CD020
:10328000012084F8200094F821600020012E06D04F
:1032900084F820000225284670BD022070BD022659
:1032A00084F82160A0632068066826F001060660A5
:1032B0002046FFF7C9FF2068016841F00101016065
:1032C000E9E770B5044690F82000002501280CD0ED
:1032D000012084F8200094F821600020012E06D0FF
:1032E00084F820000225284670BD022070BD022609
:1032F00084F82160A0632068066826F00106066055
:103300002046FFF7A1FFE06A00282068016802D08C
:1033100041F00E0106E021F004010160206801681F
:1033200041F00A0101602068016841F0010101607B
:10333000D9E701680A6822F00E020A6001680A688B
:1033400022F001020A6090F84020C36B012101FACB
:1033500002F25A6080F82110002180F820100846FF
:1033600070472DE9F05F90F821100024022903D066
:1033700004218163012485E001680A6822F00E02BD
:103380000A6001680A6822F001020A60734E734FF6
:103390008036B215DFF8C4C1DFF8C091DFF8BCA1F8
:1033A000DFF8B8B1DFF8B4E101680837130115029E
:1033B0000CF11C0C09F130090AF1440A0BF1580B0D
:1033C0000EF16C0E4FF48018B14227D9B9420ED0DD
:1033D000614512D049451DD0514518D0594518D0E6
:1033E000714501D1424615E05A4EB14201D1012248
:1033F00010E0584E1436B14201D110220AE0554E69
:103400002836B14206D0534A3C32914201D11A4685
:1034100000E02A464F49091F0A602AE0B94213D04A
:10342000614517D0494522D051451DD059451DD081
:10343000714501D142461AE0B14202D14FF080728B
:1034400015E0444EB14201D1012210E0414E143644
:10345000B14201D110220AE03E4E2836B14206D0D8
:103460003C4A3C32914201D11A4600E02A463B498F
:103470004A60012180F82110002180F82010416B62
:1034800001B188472046BDE8F09F2DE9F74F04467B
:1034900090F8210082B0022805D00420A06300200B
:1034A00084F82000FDE020680168890603D54FF408
:1034B0008070A063F5E0294D284E03991C35303605
:1034C000DFF89880DFF89490DFF890A00029244975
:1034D0004FF4806B08F1440809F158090AF16C0AAD
:1034E00003D088423ED1042758E0884201D1022708
:1034F00054E0A84201D1202750E0B04203D100BFE0
:103500004FF400774AE0404503D100BF4FF4005725
:1035100044E0484503D100BF4FF400373EE050453A
:1035200002D14FF4001739E00D497831884201D1BA
:10353000870433E007498842D9D0064914318842CC
:10354000D9D0044928318842DAD002493C31884236
:10355000E2D1DBE708040240F8FFFDBF00000240B3
:1035600008000240A84201D1402717E0B04201D133
:103570005F4613E0404502D14FF480470EE04845D6
:1035800003D100BF4FF4802708E0504502D14FF42B
:10359000800703E0F649884204D1C704FFF764F8C6
:1035A000009082E0F34988429DD0F249143188426C
:1035B000DAD0F04928318842DAD0EE493C318842ED
:1035C000E0D1D9E7884228D9EA4908390A68E849A8
:1035D0007839884210D0A84210D0B04214D040456B
:1035E00015D0484516D0504503D100BF4FF4000018
:1035F00027E0E049884234D1082022E0802020E002
:10360000DC492831884231D14FF4006019E04FF491
:10361000004016E04FF4002013E0D54A803A1268CB
:10362000D34B783B9842E7D0A842E7D0B042EBD0EA
:103630004045ECD04845EDD05045D7D08842D8D150
:103640001806024217D094F84010E26B012000FAED
:1036500001F1516054F8381F41F0010144F8181984
:103660001CE0C44914318842CAD1C7E7C1493C3182
:103670008842CFD1CBE70498401C16D0049830B1D3
:10368000FEF7F2FF0099411A049881420DD954F8CF
:10369000380F40F0200044F8180901206070002025
:1036A0002070012005B0BDE8F08FB1492068884244
:1036B00002D9B04A083A01E0AD4A803A12683A426B
:1036C00080D0AC4A0399121F0029A94911D0884221
:1036D00075D9A749783988427BD0A8427FD0B042BB
:1036E00070D040456FD048456ED050456ED1C8046B
:1036F00086E088422CD99E49783988420ED0A8426B
:1037000012D0B04216D040451BD048451CD0504581
:1037100001D188041AE09749884201D1022015E0BE
:1037200094491431884201D120200FE09149283179
:10373000884202D14FF4007008E08E493C31884243
:1037400002D14FF4005001E04FF40030106032E03D
:10375000874A783A904213D0A84217D0B0421BD083
:10376000404520D0484521D0504501D190041FE06C
:10377000884202D14FF000701AE07E49884201D1A0
:10378000022015E07B491431884201D120200FE04E
:1037900078492831884202D14FF4007008E0754919
:1037A0003C31884202D14FF4005001E04FF4003028
:1037B0006F4980394860012084F8210054E021E0FD
:1037C00007E00CE011E016E018E0FFE769498842E5
:1037D00001D1042014E067491431884201D140200E
:1037E0000EE064492831884201D1584608E0614919
:1037F0003C31884202D14FF4804001E04FF48020F8
:10380000106031E05A4A783A904213D0A84217D05B
:10381000B0421BD040451FD0484520D0504501D173
:10382000D0041EE0884202D14FF0806019E0514977
:10383000884201D1042014E04E491431884201D15C
:1038400040200EE04B492831884201D1584608E01B
:1038500048493C31884202D14FF4804001E04FF4A6
:103860008020434980394860002084F8200019E70F
:103870002DE9F05FC16B0A6801680B68046C4FF0BA
:10388000040808FA04F83C4D3C4E3D4FDFF8F4C004
:10389000DFF8F490DFF8F4A0DFF8D8B0DFF8F0E05C
:1038A00018EA020F76D05FEA437873D50A68920669
:1038B00003D40A6822F004020A604FF48062DFF841
:1038C000B080016813011402414524D9A9420DD0EA
:1038D000B1420FD0B9421AD0614515D0494515D033
:1038E000514501D1120312E0594501D104220EE0E5
:1038F000714501D140220AE0254D1435A94206D078
:10390000234A2832914201D11A4600E02246194941
:10391000091F0A6029E0A94213D0B14215D0B9426B
:1039200020D061451BD049451BD0514502D14FF4F1
:10393000800217E0414502D14FF0806212E0594504
:1039400001D104220EE0714501D140220AE0104D60
:103950001435A94206D00E4A2832914201D11A46A6
:1039600000E02246044908394A60C16A80E011E05B
:103970008000024008040240080002401C0002408F
:103980003000024044000240580002406C000240F7
:103990001C0402404FF0020808FA04F818EA020F6B
:1039A0006BD05FEA837868D50A68920606D40A6805
:1039B00022F00A020A60012180F821104FF40072FF
:1039C000DFF89081016813011402414523D9A9420F
:1039D0000DD0B1420FD0B94219D0614514D049453C
:1039E00014D0514501D1120311E0594501D10222F1
:1039F0000DE0714501D1202209E0574DA94206D0C2
:103A0000554A1432914201D11A4600E022465249E9
:103A10002C390A6028E0A94213D0B14215D0B9422E
:103A20001FD061451AD049451AD0514502D14FF4F3
:103A3000001216E0414502D14FF0007211E05945E5
:103A400001D102220DE0714501D1202209E0424D51
:103A5000A94206D0404A1432914201D11A4600E0F0
:103A600022463C4980394A60002180F82010816A52
:103A700000291BD0BDE8F05F08470825A540154286
:103A800014D01A0712D50A6822F00E020A6090F8C4
:103A90004020C36B012101FA02F25A60816380F871
:103AA0002110002180F82010016BE1E7EBE410B554
:103AB00090F820400023012C07D0012480F82040FA
:103AC00090F82140012C02D008E0022010BD59B12D
:103AD00001290BD002290BD003290BD0012300218F
:103AE00080F82010184610BD8262F8E7C262F6E73F
:103AF0000263F4E74263F2E710B590F82020002358
:103B0000012A08D0012280F8202090F821400022CC
:103B1000012C02D014E0022010BD052910D2DFE8EC
:103B200001F0030507090B0082620AE0C26208E0A7
:103B3000026306E0426304E08262C2620263F9E764
:103B4000012380F82020184610BD90F8210070470E
:103B5000806B70478000024030040240734900F0DF
:103B6000070208684FF6FF03184040EA0220704A37
:103B7000104308607047F0B46C4B1B680C46C3F3ED
:103B80000223C3F10705042D00D90425191D0729B7
:103B900001D2002300E0DB1E012606FA05F1491ED2
:103BA000214099409E40761E16403143F0BC00F003
:103BB000ADB800F01F02012191404009800000F1E2
:103BC000E020C0F80011704700F01F020121914071
:103BD0004009800000F1E020C0F880117047BFF379
:103BE0004F8F52480168524A01F4E061121D11439F
:103BF0000160BFF34F8F00BFFDE710B5401EB0F16D
:103C0000807F01D3012010BD4FF0E02460610F21BF
:103C1000601700F07BF80020A061072020610020E1
:103C200010BD42480068C0F30220704770B50028FC
:103C300006DA00F00F0000F1E02090F8140D03E028
:103C400000F1E02090F80004040901F00700C0F141
:103C50000705042D00D90425011D072901D20020E4
:103C600000E0C01E012124FA00F601FA05F56D1EE0
:103C70002E408140491E21401660196070BD00F041
:103C80001F02012191404009800000F1E020C0F8AE
:103C9000001270474109890001F1E021D1F80012BA
:103CA00000F01F0201209040014201D00120704726
:103CB0000020704700F01F02012191404009800060
:103CC00000F1E020C0F8801270474109890001F13D
:103CD000E021D1F8001300F01F02012090400142C2
:103CE00001D001207047002070474FF0E0210428E8
:103CF000086903D020F004000861704740F0040018
:103D0000FAE7704710B5FFF7FCFF10BD0907090E71
:103D1000002806DA00F00F0000F1E02080F8141D02
:103D2000704700F1E02080F8001470470CED00E0CF
:103D30000000FA052248016841F001010160416874
:103D4000204A1140416001681F4A1140016001682A
:103D500021F480210160416821F4FE0141604FF4AB
:103D60001F0181601949C00308607047144910B5EC
:103D70004868174A10F00C03164803D0042B01D0F2
:103D8000082B09D002604968134AC1F30311515C42
:103D90000268CA40026010BD4A684B6802F47012A3
:103DA0004FF0020413F4803F04EB924202D04B68C0
:103DB0009B0301D5094B00E0054B5A43E2E70000A5
:103DC000001002400000FFF8FFFFF6FE08ED00E0E3
:103DD00000127A000C0000207854000800093D0011
:103DE0002DE9FE437FA001F0EDF900F0B8FA83A0C1
:103DF00001F0E8F900F0B0F900F0F6F94FF4FA70CC
:103E0000FEF747FC40F64830044601F0FFFA5FEA4F
:103E100000084FF0FF357DD0204601F0F7FA07008B
:103E200079D07DA001F0CEF9FF264FF48774982257
:103E3000234611464046009600F0BCFA98222346DD
:103E400011463846009600F0B5FA7DA001F0BAF9A7
:103E5000404600F0CBFAFF2000F086FB0124234609
:103E600000220A210520009400F0AFFB022300226B
:103E700019210520009400F0A8FB0025CDE900548D
:103E80003C2346220A211420029500F0F8FBCDE9DC
:103E900000543C2314220A214620029500F0EFFB37
:103EA000CDE900543C2346220A211420029500F05B
:103EB00049FCCDE900543C2382220A21552002947A
:103EC00000F040FC384600F091FAFF2000F04CFB77
:103ED0000323002228210520009400F076FB042310
:103EE000002237210520009400F06FFBCDE900543B
:103EF000AA2237230F211046029400F0C0FBCDE91F
:103F000000542323BE2219469620029400F0B7FBEA
:103F1000002301E05EE05FE00F2223212D20CDE9A8
:103F2000004500F05EFD009400230F221E21692051
:103F3000019400F056FDCDE900564A4B4AA24621B5
:103F4000052000F0ACFECDE90056464B494A5F2102
:103F5000052000F0CDFFCDE90056474B47A2782160
:103F6000052000F0D6FE3946404600F068F94FF4CF
:103F7000FA642046FEF78DFB42A001F023F940468B
:103F800000F034FA4B4801F086F8384600F02EFA7B
:103F9000494801F080F83946404600F050F9204683
:103FA000FEF777FB45A001F00DF900F01DF946A0E2
:103FB00001F008F900F07AF9404601F0FFF93846BF
:103FC00001F0FCF944A001F0FDF800F0DBF900205D
:103FD000BDE8FE834DA000E056A001F0F3F82846AE
:103FE000F6E700004550445F31494E3534435F7475
:103FF0006573742044656D6F0D0A0000652D506176
:1040000070657220496E697420616E6420436C652E
:1040100061722E2E2E0D0A004E6577496D6167651F
:104020003A426C61636B496D61676520616E642023
:1040300059656C6C6F77496D6167650D0A0000000A
:1040400044726177696E672D2D2D2D2D2D2D2D2D0F
:104050002D2D2D2D2D2D2D2D2D2D2D2D2D2D2D0DB0
:104060000A0000001C0000207761766573686172A9
:104070006500000015CD5B0710000020C4E3BAC343
:104080006162630073686F7720696D6167652066A0
:104090006F722061727261792D2D2D2D2D2D2D2D98
:1040A0002D2D2D2D2D2D2D2D2D2D2D2D2D2D2D2D40
:1040B0000D0A000090540008D85F0008436C656149
:1040C000722E2E2E0D0A0000476F746F20536C6500
:1040D00065702E2E2E0D0A00636C6F7365203556A9
:1040E0002C204D6F64756C6520656E74657273204D
:1040F0003020706F77657220636F6E73756D7074AA
:10410000696F6E202E2E2E0D0A0000004661696C2C
:10411000656420746F206170706C7920666F722006
:10412000626C61636B206D656D6F72792E2E2E0D42
:104130000A0000004661696C656420746F2061703C
:10414000706C7920666F7220726564206D656D6F8A
:1041500072792E2E2E0D0A0010B57B4C0122022101
:104160002046FEF7C5FF0A20FEF793FA002202213F
:104170002046FEF7BDFF0A20FEF78BFA012202213E
:104180002046FEF7B5FF0A20FEF783FA062000F06E
:104190009BF8172000F0AFF8172000F0ACF81720BC
:1041A00000F0A9F8042000F08FF800F0BBF8002020
:1041B00000F08AF80F2000F09EF80D2000F09BF828
:1041C000612000F081F8982000F095F8002000F0C0
:1041D00092F8982000F08FF8502000F075F8BDE8B4
:1041E0001040772000F087B82DE9F041132598267C
:1041F000102000F069F800270024FF2000F07BF871
:10420000641CA4B2AC42F8D37F1CBFB2B742F3D354
:10421000132000F059F800270024FF2000F06BF86D
:10422000641CA4B2AC42F8D37F1CBFB2B742F3D334
:10423000122000F049F8BDE8F04100F073B82DE914
:10424000F04781468A4613264FF09808102000F068
:104250003BF80024002504FB06F700BF09EB05002E
:10426000385C00F048F86D1CADB2B542F6D3641C62
:10427000A4B24445EED3132000F026F80024002514
:1042800004FB06F70AEB0500385C00F034F86D1CFF
:10429000ADB2B542F6D3641CA4B24445EFD31220AC
:1042A00000F012F8BDE8F04700F03CB810B502206D
:1042B00000F00AF800F036F8072000F005F8BDE835
:1042C0001040A52000F017B870B51F4C054600221D
:1042D00004212046FEF70CFF002210212046FEF7A5
:1042E00007FF284600F032F82046BDE87040012262
:1042F0001021FEF7FDBE70B5134C054601220421C6
:104300002046FEF7F5FE002210212046FEF7F0FEC3
:10431000284600F01BF82046BDE87040012210211D
:10432000FEF7E6BE10B5084C7120FFF7CDFF08215F
:104330002046FEF7D8FE40F30000401CF4D1BDE853
:104340001040C820FEF7A5B90008014001B54FF4A0
:104350007A73012269461548FCF744F908BD10B587
:10436000134C002204212046FEF7C2FE0022102139
:104370002046FEF7BDFE012202212046FEF7B8FED0
:10438000002010BD10B50A4C002204212046FEF783
:10439000AFFE002210212046FEF7AAFE2046002292
:1043A000BDE810400221FEF7A3BE0000300000204F
:1043B0000008014070B5F94C049E00252060218161
:1043C0006281A6810220E0824E074FEAD10000D030
:1043D000401C6082A282E381258223B1B42B02D0EB
:1043E000A280E18070BDA180E28070BDEB490860D1
:1043F000704710B504000BD05A2C09D0B42C07D04C
:10440000B4F5877F04D0BDE81040E5A000F0DABE27
:104410000146ECA000F0D6FEE048C48110BDDF49A3
:1044200010B50A89022809D004280FD0EDA000F0A9
:10443000C9FEBDE81040F6A000F0C4BEC882D7484F
:1044400052070089C00806E0488210BDC882D348E0
:10445000920700898008002AF6D0401CF4E710B5C6
:1044600004000AD0012C08D0022C06D0032C04D062
:10447000BDE81040EF4800F0A5BE6008C00701D0BD
:10448000EDA200E0EEA2E00701D0EBA100E0ECA17C
:10449000EDA000F097FEC148048210BDF0B4BF4CFF
:1044A000A388834234D3E3888B4231D32346E78900
:1044B0001E895D89CFB15A2F1AD0B42F1CD0B7F501
:1044C000877F3FD10B46281A401E80B2218AD9B17E
:1044D000012916D0022904D0032933D1F11A491E2B
:1044E0008BB2281A401E80B20EE003460846EDE764
:1044F000711A491E8BB2E9E7301A401E83B2681A5E
:10450000E2E7F11A491E8BB29E4201D3854203D2E3
:10451000F0BCD6A000F056BEA049E58A4C8A0968D6
:10452000022D11D0042D0DD1444304EB93049007C8
:104530009B075B0FC025DD400A5D000EAA43D840F3
:1045400010430855F0BC7047444304EBD30480206B
:10455000002A0D5D03F0070220FA02F001D0284383
:10456000EFE785430D55EDE730B500218B4AC3B227
:104570000DE0002006E000BF01FB04041568401CAC
:1045800080B22B55548A8442F6D8491C89B2908A4D
:104590008842EED830BD2DE9F0471F4616460D463D
:1045A0008046DDF820900CE0444606E04A46294665
:1045B0002046FFF773FF641CA4B2B442F6D36D1C0F
:1045C000ADB2BD42F0D3BDE8F0872DE9F05F734D89
:1045D00093468146AA880A981C4688464A4502D3D3
:1045E000EA8842450ED2ABA000F0ECFDAA8849460D
:1045F000B8A000F0E7FDEA884146BDE8F05FBEA044
:1046000000F0E0BD012801D0002635E00025681E3D
:1046100000EB440719E009EB05000026A0EB040AB3
:104620000FE000BFBAF1000F0DD408EB0600001B2D
:1046300009D481B21FFA8AF05A46FFF72FFF761C81
:1046400036B2B742EEDC6D1C2DB2AF42E3DCBDE802
:10465000F09F002509EB06077F1E09E008EB050027
:10466000401E81B2B8B25A46FFF718FF6D1C2DB23A
:10467000A542F3DB761C36B2A642EADBE7E72DE97A
:10468000FE4F1D46454B16469A88824206D3DB886C
:104690008B4203D3B24201D3AB4204D2BDE8FE4FFA
:1046A0009FA000F08FBD83468A46321A00D5821B38
:1046B00091466A1A002A00DD4A1B90464FF0FF32ED
:1046C000B34501D2012000E010460290AA4500D275
:1046D000012209EB0804002701927F1C0E98FFB20B
:1046E000012805D10320B7FBF0F100FB1170E8B100
:1046F0000120DDE90C23009051465846FFF765FF85
:10470000B8EB440F07DCB3451AD0029944440BEBD5
:1047100001001FFA80FBB9EB440FDEDBAA450FD086
:1047200001984C4450441FFA80FAD6E701200090CB
:10473000FF22514658460D9BFFF747FF0027DFE752
:10474000BDE8FE8F2DE9FE4F8246144891460C4687
:10475000DDE90D5281880C9E1F46514506D3C08865
:10476000A04203D3494501D3B84204D2BDE8FE4F6D
:104770007BA000F027BD0020804662B908E1CDE9AA
:10478000006523464A4619465046CDF80880FFF793
:1047900076FF641CA4B2BC42F1D3D1E7C80000206C
:1047A00044656275673A20726F74617465203D20BC
:1047B000302C2039302C203138302C203237300D3D
:1047C0000A00000044656275673A205365742069E9
:1047D0006D61676520526F746174652025640D0AF0
:1047E0000000000044656275673A205365742053E9
:1047F00063616C6520496E70757420706172616DC3
:1048000065746572206572726F720D0A0000000097
:1048100044656275673A205363616C65204F6E6C26
:104820007920737570706F72743A20322034200DC5
:104830000A000000D07F00086D6972726F7200007C
:104840006E6F6E650000000044656275673A206D0A
:104850006972726F7220696D61676520783A25739D
:104860002C20793A25730D0A00000000446562751A
:10487000673A20457863656564696E67206469738B
:10488000706C617920626F756E6461726965730D19
:104890000A00000044656275673A205061696E74D1
:1048A0005F44726177506F696E7420496E707574E1
:1048B000206578636565647320746865206E6F7227
:1048C0006D616C20646973706C61792072616E67D0
:1048D000650D0A0058706F696E74203D20256420B4
:1048E0002C205061696E742E5769647468203D20D5
:1048F000256420200D0A200059706F696E74203DD8
:10490000202564202C205061696E742E48656967EB
:104910006874203D20256420200D0A20000000003E
:1049200044656275673A205061696E745F447261D4
:10493000774C696E6520496E707574206578636583
:1049400065647320746865206E6F726D616C20649D
:104950006973706C61792072616E67650D0A000081
:1049600044656275673A20496E7075742065786396
:104970006565647320746865206E6F726D616C206C
:10498000646973706C61792072616E67650D0A00ED
:10499000CDE9006523464A4619465046CDF80880C1
:1049A000FFF76DFECDE9006552463B4621461046B5
:1049B000CDF80880FFF763FECDE900654A4623463F
:1049C00039461046CDF80880FFF759FECDE900655D
:1049D0003B46524619464846CDF80880FFF74FFE41
:1049E000AEE62DE9FF4F8046F74885B00F46848834
:1049F0001399444502D3C088B84205D809B0F3489A
:104A0000BDE8F04F00F0DEBB03200024A0EB420025
:104A100015B20FFA80FA012978D0E7E0264660E067
:104A20004FF0010908EB040007EB060B02901FFA98
:104A30008BF1CDF8009080B24B46089AFFF7C5FD88
:104A4000A8EB040004901FFA8BF1CDF8009080B21F
:104A50000123089AFFF7B9FD3819CDE9009081B21A
:104A6000A8EB060B1FFA8BF00123089AFFF7ADFDA8
:104A7000381B039081B2CDF800901FFA8BF0012310
:104A8000089AFFF7A2FD0498A7EB060B1FFA8BF11B
:104A9000CDF8009080B20123089AFFF796FD0298A6
:104AA0001FFA8BF1CDF8009080B20123089AFFF72E
:104AB0008CFD039808EB060B81B2CDF800901FFA2D
:104AC0008BF00123089AFFF780FD0198CDF8009044
:104AD00081B21FFA8BF00123089AFFF776FD761C4E
:104AE00036B2AE429CDDBAF1000F05DA0AEB840063
:104AF000801D0FFA80FA07E0611B0AEB81000A3083
:104B00006D1E0FFA80FA2DB2641C24B2AC4285DD12
:104B100009B0BDE8F08F08EB0400012607EB05099A
:104B200002901FFA89F1009680B2129B089AFFF753
:104B30004CFDA8EB040003901FFA89F1009680B2A7
:104B4000129B089AFFF741FD3819CDE9006081B248
:104B5000A8EB05091FFA89F0129B089AFFF735FDAB
:104B6000A7EB040B1FFA8BF11FFA89F00096129B3A
:104B7000089AFFF72AFD0398A7EB05091FFA89F1A8
:104B8000009680B2129B089AFFF71FFD02981FFA49
:104B900089F1009680B2129B089AFFF716FD08EB88
:104BA00005091FFA8BF11FFA89F00096129B089AEB
:104BB000FFF70BFD0198009681B21FFA89F0129B56
:104BC000089AFFF702FDBAF1000F05DA0AEB84003C
:104BD000801D0FFA80FA07E0611B0AEB81000A30A2
:104BE0006D1E0FFA80FA2DB2641C24B2AC4292DD25
:104BF0008EE72DE9F05F814673481E46DDF82CB044
:104C0000838888464B4502D3C188414504D2BDE81C
:104C1000F05F6FA000F0D6BAB088410700D0012144
:104C200001EBD000203AF1885043484331684FF0FF
:104C3000800A0F1800252EE0002423E0BBF1FF0FAF
:104C40003A7804F007012AFA01F002EA000201D0E2
:104C50000AB908E082B108EB050081B209EB040053
:104C600080B20A9A06E008EB050081B209EB040065
:104C700080B25A46FFF712FCE043400700D17F1C88
:104C8000641CA4B2B088A042D8D83079400700D0C4
:104C90007F1C6D1CADB2F088A842CDD8D7E42DE9B9
:104CA000FC5F8046484889460D4681884446DDF8C9
:104CB00034B01E461746A14203D3C1888246A9429A
:104CC00022D2BDE8FC5F524800F07CBAB088BAF846
:104CD00004300119994203D9F188444629448DB220
:104CE000F188BAF806002944814201D944464D466C
:104CF0000C983346CDE900B029462046FFF779FFEE
:104D0000B0887F1C204484B23A78002ADED1BDE806
:104D1000FC9F2DE9F05F1D46904606468A46DDF869
:104D20002CB0DFE07F294FF000007DD8AA8875E025
:104D300053232C68434314F813308B426DD1532115
:104D40004843022101EB400004EB0009002736E054
:104D500000242BE04FEAE47004EB507020F00700D1
:104D6000A4EB0002BBF1FF0F99F800104FF0800098
:104D700020FA02F001EA000101D009B907E071B19F
:104D80000AEB070081B2301980B20A9A05E00AEBFB
:104D9000070081B2301980B25A46FFF77FFB1D48E9
:104DA0002040072801D109F10109641C2889A0428B
:104DB000D0DC287A400701D009F101097F1C6889FD
:104DC000B842C5DC2CE02FE0C80000207880000845
:104DD00044656275673A205061696E745F44726120
:104DE000774368617220496E7075742065786365D9
:104DF00065647320746865206E6F726D616C2064E9
:104E00006973706C61792072616E67650D0A0000CC
:104E10003480000807000080FFE7401C824287DCE6
:104E200008F10108E8885CE00127AB8854E05322D0
:104E30002C68424314F812C08C454CD107EB420257
:104E4000A45C98F80120944245D153225043022299
:104E5000296802EB400001EB0009002737E000243D
:104E60002CE000BF4FEAE47004EB507020F0070024
:104E7000A4EB0002BBF1FF0F99F800104FF0800087
:104E800020FA02F001EA000101D009B907E071B18E
:104E90000AEB070081B2301980B20A9A05E00AEBEA
:104EA000070081B2301980B25A46FFF7F7FA9348EB
:104EB0002040072801D109F10109641C2889A0427A
:104EC000D0DC287A400701D009F101097F1C6889EC
:104ED000B842C4DC02E0401C8342A8DC288908F107
:104EE0000208064498F8001000297FF41BAFD5E6AD
:104EF0002DE9FF4FADF5037D8846DDE990AB814696
:104F000000244FF4807715462646394642A800F023
:104F100026F9394602A800F022F9794842AA838886
:104F20004B4503D3C38802A8434510D275A000F0B7
:104F300049F90DF5077DECE595FBF1F301FB135302
:104F400095FBF1F530330355641C24B200E00A21CF
:104F5000002DF1D11146002C08DD031913F8013C96
:104F60008B55761C641E36B224B2F4E7CDE900BA44
:104F700041464846869BFFF792FEDAE72DE9FF4F50
:104F800085B070A117468046DDE9126507C902ABFE
:104F90004FF00A0983E8070039790898B1FBF9F165
:104FA0009A4684881AF80120CDE900564046089BAD
:104FB0000699FFF71EFE397908EB040BB1FBF9F2F5
:104FC00009FB12111FFA8BF01AF80120CDE90056E7
:104FD000089B0699FFF70DFECDE900560BEB9400F8
:104FE00000EB540080B23A22089B0699FFF701FEBD
:104FF000797908EB4400B1FBF9F100EB54001AF8A1
:105000000120CDE9005680B2089B0699FFF7F1FD1B
:10501000797904EB440BB1FBF9F209FB12110BEBAC
:1050200008001AF80120CDE9005600EB540080B2C8
:10503000089B0699FFF7DDFD08EB8400CDE90056DB
:1050400000EB5400A0EB940080B23A22089B069932
:10505000FFF7CFFDB979089BB1FBF9F11AF80120F0
:1050600004EB8401CDE9005601EB080080B20699FB
:10507000FFF7BFFDBA7908EB4B00B2FBF9F109FB72
:10508000112180B21AF80120CDE90056089B06993B
:10509000FFF7AFFD3CE570B50022194B0EE0002193
:1050A00007E000BF02FB04141E68055D491C35556E
:1050B00089B25C8A8C42F5D8521C92B2998A91428C
:1050C000EDD870BDF0B500230D4A491E12E0002452
:1050D0000BE000BF978A03FB05466F434F438519DA
:1050E000641C7D5D1768A4B2BD55558AA542F1D8F0
:1050F0005B1C9BB2948A9C42E9D8F0BD07000080FB
:10510000C800002044656275673A205061696E747A
:105110005F4469734E756D20496E707574206578B3
:10512000636565647320746865206E6F726D616C71
:1051300020646973706C61792072616E67650D0A15
:105140000000000030313233343536373839000052
:10515000D2B201E000F8012B491EFBD270470022B9
:10516000F6E710B513460A4604461946FFF7F0FF66
:10517000204610BD30B50B460146002020220124F8
:1051800009E021FA02F59D4205D303FA02F5491B15
:1051900004FA02F52844151EA2F10102F1DC30BD2B
:1051A000064C074D06E0E06840F0010394E8070074
:1051B00098471034AC42F6D3FAF7BEFFBC80000823
:1051C000DC8000080FB4054B10B503A9044A02980F
:1051D00000F018F810BC5DF814FB0000C7030008CD
:1051E0002400002002E008C8121F08C1002AFAD1DA
:1051F00070477047002001E001C1121F002AFBD157
:10520000704700002DE9FF4F8BB09A460F460546C8
:10521000002606E025280BD052460D9990476D1CBC
:10522000761C28780028F5D10FB03046BDE8F08F05
:105230000024A0460122604900E0044315F8013F24
:10524000203B02FA03F00842F7D128782E2817D124
:1052500015F8010F44F004042A280ED06FF02F0235
:105260002878A0F1300109290AD808EB880102EB5F
:10527000410100EB01086D1CF2E757F8048B6D1C2F
:10528000287869283ED006DC0028CDD063280BD0D2
:10529000642804D136E0732810D075284BD05246CC
:1052A0000D999047761C85E017F8040B8DF80000E7
:1052B00000208DF80100E946012003E057F8049B27
:1052C0004FF0FF3061074FF0000401D40AE0641C86
:1052D00044450DDA8442FADB19F804100029F6D1AE
:1052E00006E0641C8442FCDB19F804100029F8D1A4
:1052F000264404E019F8010B52460D999047641EAC
:10530000F8D257E001CF4FF00A0B002802DA4042F2
:105310002D2102E0210504D52B218DF82410012137
:1053200003E0E10705D02021F7E70DF120090891FE
:105330000CE00021F9E701CF4FF00A0BF9E75946DD
:10534000FFF718FF01F1300209F8012D0028F6D10E
:10535000ADEB090000F1200B600701D44FF001080C
:10536000D84502DDA8EB0B0000E0002080460024B9
:1053700006E009A85246005D0D999047641C761C12
:1053800008988442F5DB04E0302052460D9990479E
:10539000761CB8F10001A8F10108F5DC05E019F868
:1053A000010B52460D999047761CBBF10001ABF101
:1053B000010BF4DC6D1C34E70928010010B500284E
:1053C00021D0114B0022001F196803E0814203D84D
:1053D0000A4649680029F9D152B11368841A9C42DF
:1053E00004D1006818441060104602E0506000E0EC
:1053F000186039B102680B1A934203D10B681A4442
:1054000002604968416010BD28000020F0B50B30F3
:10541000154D20F007010024144A0FE003688B4269
:105420000BD38B4205D95E1A43184768C3E900675E
:1054300000E04368136002C004E0021D1068002809
:10544000ECD12046002802D1286808B10020F0BD28
:10545000064A07481060074A121A22F00702C0E9FC
:10546000002401202860D7E72C000020280000201D
:10547000E4000020E0900020000000000000000098
:1054800001020304060708090000000001020304EA
:10549000FFFFFFFFFFFFFFFFFFFFFFFFBFFFFFFF5C
:1054A000FFFFFFFFFFFFFFFFFFFFFFFFFFFFFFBF4C
:1054B000FFFFFFFFFFFFFFFFFFFFFFFFFFFFFFFFFC
:1054C000FFFFBFFFFFFFFFFFFFFFFFFFFFFFFFFF2C
:1054D000FFFFFFFFFFBFFFFFFFFFFFFFFFFFFFFF1C
:1054E000FFFFFFFFFFFFFFFFDFFFFFFFFFFFFFFFEC
:1054F000FFFFFFFFFFFFFFFFFFFFFFDFFFFFFFFFDC
:10550000FFFFFFFFFFFFFFFFFFFFFFFFFFFFDFFFCB
:10551000FFFFFFFFFFFFFFFFFFFFFFFFFFFFFFFF9B
:10552000FFDFFFFFFFFFFFFFFFFFFFFFFFFFFFFFAB
:10553000FFFFFFFFDFFFFFFFFFFFFFFFFFFFFFFF9B
:10554000FFFFFFFFFFFFFFDFFFFFFFFFFFFFFFFF8B
:10555000FFFFFFFFFFFFFFFFFFFFDFFFFFFFFFFF7B
:10556000FFFFFFFFFFFFFFFFFFFFFFFFFFDFFFFF6B
:10557000FFFFFFFFFFFFFFFFFFFFFFFFFFFFFFFF3B
:10558000DFFFFFFFFFFFFFFF00000FFFFFFFFFFF39
:10559000FFFFFFDFFFFFFFFFFFFFFE00000FFFFF2A
:1055A000FFFFFFFFFFFFEFFFFFFFFFFFFFFE00001A
:1055B00007FFFFFFFFFFFFFFFFEFFFFFFFFFFFFF03
:1055C000FE000007FFFFFFFFFFFFFFFFEFFFFFFFF2
:1055D000FFFFFFFC000007FFFFFFFFFFFFFFFFEFE4
:1055E000FFFFFFFFFFFFFC000007FFFDFFCFFFFFF6
:1055F000FFFFEFFFFFFFFFFFFFFC000003FFF87F4F
:1056000087FFFFFFFFEFFFFFFFFFFFFFFC0000032F
:10561000FFF8FFC7FFFFFFFFEFFFFFFFFFFFFFFCEC
:10562000007803FFF8FFE7FFFFFFFFEFFFFFFFF545
:10563000FFFFFC00FB83FFF9FFE3FFFFFFFFEFFF2E
:10564000FFFF803FFFFC01F9C3FFF8FFE3FFFFFF0F
:10565000FFEFFFFFFE001FFFF801D9C3FFF8FFC7F0
:10566000FFFFFFFFF7FFFFFC000FFFF801D9C3FFAB
:10567000F87F87FFFFFFFFF7FFFFFC0004FFF80143
:10568000D9C3FFFC3F07FFFFFFFFF7FFFFF8000054
:10569000FFF801DBC1FFFC000FFFFFFFFFF7FFFF7B
:1056A000F00001FFF800FF81FFFE001FFFFFFFFF7A
:1056B000F7FFFFF06001FFF8007F81FFFF807FFFB1
:1056C000FFFFFFF7FFFFF06001FFF8003E01FFFF63
:1056D000FFFFFFFFFFFFF7FFFFE00001FFF8000003
:1056E00001FFFEFFFFFFFFFFFFF7FFFFE00001FFED
:1056F000F801C001FFF83FFFFFFFFFFFF7FFFF20AA
:105700000001FFF801C001FFF19FFFFFFFFFFFF75E
:10571000FFFE200001FFF801C001FFF39FFFFFFF24
:10572000FFFFFBFFF8200001FFF800E001FFF39FFF
:10573000FFFFFFFFFFFBFFF0306001FFF801FFC13B
:10574000FFF19FFFFFFFFFFFFBFFF0107001FFF86D
:1057500001FFC1FFF83FFFFFFFFFFFFBFFE010600D
:1057600003FFF801FFC1FFFEFFFFFFFFFFFFFBFF8D
:10577000C0100003FFF8000001FFFFFFFFFFFFFF65
:10578000FFFBFFC1C80003FFF8000001FFFFC0FFDF
:10579000FFFFFFFFFBFFC1C40007FFF8000001FF90
:1057A000FE001FFFFFFFFFFBFF81C4000FFFF8009B
:1057B0007FC1FFFC000FFFFFFFFFFBFF8082001F88
:1057C000FFF800FFC1FFF83307FFFFFFFFFBFF807B
:1057D00001803FFFF801FFC1FFF8F1C7FFFFFFFFA6
:1057E000FDFF800061FFFFF801D981FFF9F9E3FFB8
:1057F000FFFFFFFDFF80000EFFFFF801D9C1FFF999
:10580000F9E3FFFFFFFFFDFF8000007FFFF801D9F4
:10581000C1FFF8F1E3FFFFFFFFFDFF800000FFFF86
:10582000F801D9C1FFF801C7FFFFFFFFFDFF80802E
:1058300000FFFFF801DFC1FFFC03C7FFFFFFFFFD13
:10584000FF81C000FFFFF800CFC1FFFE07EFFFFFA1
:10585000FFFFFDFFC1C000FFFFF8000781FFFFFF52
:10586000FFFFFFFFFFFDFFC1C000FFFFF8000001C9
:10587000FFFFFFFFFFFFFFFFFDFFC000007FFFF8FE
:10588000000001FFFFFFE7FFFFFFFFFDFFE000005B
:105890007FFFF8007FC1FFFE0FC7FFFFFFFFFDFF87
:1058A000F000023FFFF800FFC1FFFC03C7FFFFFF4E
:1058B000FFFEFFF00007FFFFF801FFC1FFF800C780
:1058C000FFFFFFFFFEFFF8000FFFFFF801E001FF01
:1058D000F8F067FFFFFFFFFEFFFE001FFFFFF8016C
:1058E000C001FFF9F827FFFFFFFFFEFFFF007FFF6A
:1058F000FFF801C001FFF9FE07FFFFFFFFFEFFFFFA
:10590000FFFFFFFFF800C001FFF9FF07FFFFFFFFE8
:10591000FEFFFFFFFFFFFFF8006001FFF8FF87FFBA
:10592000FFFFFFFEFFFFFFFFFFFFF87FFFC1FFFC50
:105930007FC7FFFFFFFFFEFFFFFFFFFFFFF87FFFB7
:10594000C1FFFCFFE7FFFFFFFFFEFFFFFFFFFFFFC1
:10595000F87FFFC1FFFFFFFFFFFFFFFFFEFFFFFF1D
:10596000FFFFFFF8000001FFFFFFFFFFFFFFFFFF4A
:105970007FFFFFFFFFFFF8000001FFFFF7FFFFFFC2
:10598000FFFFFF7FFFFFFFFFFFF8000001FFFFE3C6
:10599000FFFFFFFFFFFF7FFFFFFFFFFFF80000019A
:1059A000FFFFE1FFFFFFFFFFFF7FFFFFFFFFFFF8AC
:1059B000000F01FFFFF0FFFFFFFFFFFF7FFFFF0F63
:1059C000FFFFF83C3F81FFFFF8FFFFFFFFFFFF7F76
:1059D000FFFCF3FFFFF8383F81FFFFFCFFFFFFFFF5
:1059E000FFFF7FFFF3FDFFFFF83873C1FFFFF8FFF4
:1059F000FFFFFFFFFF7FFFEFFEFFFFF83871C1FFE2
:105A0000FFF8FFFFFFFFFFFF7FFFDFFF7FFFF8389B
:105A1000E1C1FFFFF0FFFFFFFFFFFF7FFFBFFFBF01
:105A2000FFF83CE1C1FFFFE1FFFFFFFFFFFFBFFF0A
:105A3000BFFFBFFFF81FC1C1FFFFE3FFFFFFFFFF75
:105A4000FFBFFF7FFFDFFFF81FC3C1FFFFC7FFFFDF
:105A5000FFFFFFFFBFFF7FFFDFFFF80F8781FFFF23
:105A6000C7FFFFFFFFFFFFBFFEFFFFEFFFF80000D4
:105A700001FFFFCFFFFFFFFFFFFFBFFEFFFFEFFFB5
:105A8000F8000001FFFF8FFFFFFFFFFFFFBFFDFFDB
:105A900081F7FFF8007801FFFFC7FFFFFFFFFFFF5F
:105AA000BFFDFF01F7FFF800FB81FFFFC7FFFFFF0E
:105AB000FFFFFFBFFBFF3FFBFFF801F9C1FFFFC383
:105AC000FFFFFFFFFFFFBFFBFFBFFBFFF801D9C1D7
:105AD000FFFFE1FFFFFFFFFFFFBFFBF801FBFFF848
